:100000000C942A000C9447000C9447000C94470071
:100010000C9447000C9447000C9447000C94470044
:100020000C9447000C9447000C9447000C94470034
:100030000C9447000C9447000C9447000C94470024
:100040000C9447000C9447000C9447000C94470014
:100050000C94470011241FBECFE5D4E0DEBFCDBF16
:1000600010E0A0E6B0E0E4E5FBE202C005900D92EE
:10007000AC36B107D9F720E0ACE6B0E001C01D9284
:10008000AA37B207E1F70E9449000C9498150C9426
:1000900000000F931F93CF93DF93CDB7DEB7C858FF
:1000A000D1090FB6F894DEBF0FBECDBF0E94BE0FC0
:1000B00063E080E00E94B81080E690E00E949F0F0D
:1000C00080E090E0A6E9B3E489839A83AB83BC83A4
:1000D00020E030E04AE753E469817A818B819C819A
:1000E0000E94EB142D966CAF7DAF8EAF9FAF2D9716
:1000F0002D968CAD9DADAEADBFAD2D978D839E83FE
:10010000AF83B88720E030E040E85FE36D817E8117
:100110008F8198850E94CB1388232CF481E090E096
:100120009A87898761C020E03FEF4FE757E46D81F0
:100130007E818F8198850E94E61418160CF042C0CB
:1001400020E030E040E251E469817A818B819C813A
:100150000E94EB1461966CAF7DAF8EAF9FAF61973D
:1001600061968CAD9DADAEADBFAD619789AF9AAFD5
:10017000ABAFBCAF69AD7AAD8BAD9CAD0E94421404
:1001800065966CAF7DAF8EAF9FAF65976396AEAD52
:10019000BFAD6397BA87A98710C089E190E09C87BB
:1001A0008B878B859C850197F1F79C878B87000057
:1001B00089859A8501979A87898789859A85892B68
:1001C00061F71DC06D817E818F8198850E944214E8
:1001D00069966CAF7DAF8EAF9FAF699767968EAD16
:1001E0009FAD67979A87898789859A859E878D872E
:1001F0008D859E850197F1F79E878D8700008EE0A3
:100200000E945B050E94901080E80E945B050E949E
:10021000C40480936C0080916C008A33B8F580919F
:100220006C00803398F180916C000E947D0A80916F
:100230006C00882F90E0C0978C01990F220B330B34
:1002400040916D0050916E0060916F007091700050
:10025000DB01CA01880F991FAA1FBB1F880F991FB6
:10026000AA1FBB1F840F951FA61FB71F880F991FBA
:10027000AA1FBB1F800F911FA21FB31F80936D0089
:1002800090936E00A0936F00B093700080E090E0B8
:10029000A6E9B3E48F87988BA98BBA8B20E030E076
:1002A0004AE753E46F85788989899A890E94EB141B
:1002B0006D966CAF7DAF8EAF9FAF6D976D968CAD29
:1002C0009DADAEADBFAD6D978B8B9C8BAD8BBE8B5B
:1002D00020E030E040E85FE36B897C898D899E896E
:1002E0000E94CB1388232CF481E090E0988F8F8BB1
:1002F00065C020E03FEF4FE757E46B897C898D892B
:100300009E890E94E61418160CF046C020E030E0EA
:1003100040E251E46F85788989899A890E94EB14BB
:10032000A1966CAF7DAF8EAF9FAFA197A1968CAD1C
:100330009DADAEADBFADA19721968CAF9DAFAEAFD9
:10034000BFAF219721966CAD7DAD8EAD9FAD21974E
:100350000E944214A5966CAF7DAF8EAF9FAFA5975C
:10036000A396AEADBFADA397B88FAF8B10C089E198
:1003700090E09A8F898F898D9A8D0197F1F79A8FE6
:10038000898F00008F89988D0197988F8F8B8F8927
:10039000988D892B61F71DC06B897C898D899E8919
:1003A0000E944214A9966CAF7DAF8EAF9FAFA99704
:1003B000A7968EAD9FADA797988F8F8B8F89988DBD
:1003C0009C8F8B8F8B8D9C8D0197F1F79C8F8B8FE2
:1003D000000080916C008A3328F480916C00803397
:1003E00008F015CF80916D0090916E00A0916F0084
:1003F000B0917000892B8A2B8B2B09F408CF0E94B7
:10040000EB0380916C000E947D0A80E090E0A6E9F9
:10041000B3E48D8F9E8FAF8FB8A320E030E04AE722
:1004200053E46D8D7E8D8F8D98A10E94EB14AD9657
:100430006CAF7DAF8EAF9FAFAD97AD968CAD9DADE0
:10044000AEADBFADAD9789A39AA3ABA3BCA320E08B
:1004500030E040E85FE369A17AA18BA19CA10E94F2
:10046000CB1388232CF481E090E09EA38DA365C07C
:1004700020E03FEF4FE757E469A17AA18BA19CA14F
:100480000E94E61418160CF046C020E030E040E26E
:1004900051E46D8D7E8D8F8D98A10E94EB14E196B5
:1004A0006CAF7DAF8EAF9FAFE197E1968CAD9DAD08
:1004B000AEADBFADE19725968CAF9DAFAEAFBFAFF0
:1004C000259725966CAD7DAD8EAD9FAD25970E948D
:1004D0004214E5966CAF7DAF8EAF9FAFE597E39684
:1004E000AEADBFADE397BEA3ADA310C089E190E070
:1004F00098A78FA38FA198A50197F1F798A78FA32D
:1005000000008DA19EA101979EA38DA38DA19EA108
:10051000892B61F71DC069A17AA18BA19CA10E94C2
:100520004214E9966CAF7DAF8EAF9FAFE997E79627
:100530008EAD9FADE7979EA38DA38DA19EA19AA797
:1005400089A789A59AA50197F1F79AA789A700001D
:100550000E94C40480936C0080916C008A33B8F5CB
:1005600080916C00803398F180916C000E947D0A2C
:1005700080916C00882F90E0C0978C01990F220B1E
:10058000330B409171005091720060917300709133
:100590007400DB01CA01880F991FAA1FBB1F880FB7
:1005A000991FAA1FBB1F840F951FA61FB71F880F77
:1005B000991FAA1FBB1F800F911FA21FB31F8093FB
:1005C000710090937200A0937300B093740080E068
:1005D00090E0A6E9B3E48BA79CA7ADA7BEA720E057
:1005E00030E04AE753E46BA57CA58DA59EA50E944B
:1005F000EB14ED966CAF7DAF8EAF9FAFED97ED96A0
:100600008CAD9DADAEADBFADED978FA798ABA9AB4F
:10061000BAAB20E030E040E85FE36FA578A989A994
:100620009AA90E94CB1388232CF481E090E09CAB24
:100630008BAB71C020E03FEF4FE757E46FA578A97F
:1006400089A99AA90E94E61418160CF04EC020E061
:1006500030E040E251E46BA57CA58DA59EA50E94EB
:10066000EB14C358DF4F688379838A839B83CD570C
:10067000D040C358DF4F88819981AA81BB81CD5773
:10068000D04029968CAF9DAFAEAFBFAF29972996CA
:100690006CAD7DAD8EAD9FAD29970E944214CF57B2
:1006A000DF4F688379838A839B83C158D040CF57BB
:1006B000DF4FA881B981C158D040BCABABAB10C0F3
:1006C00089E190E09EAB8DAB8DA99EA90197F1F7D2
:1006D0009EAB8DAB00008BA99CA901979CAB8BAB0B
:1006E0008BA99CA9892B61F721C06FA578A989A93D
:1006F0009AA90E944214CB57DF4F688379838A837B
:100700009B83C558D040CB57DF4F88819981C5580E
:10071000D0409CAB8BAB8BA99CA998AF8FAB8FA91A
:1007200098AD0197F1F798AF8FAB000080916C0006
:100730008A3328F480916C00803308F009CF8091CF
:10074000710090917200A0917300B0917400892B98
:100750008A2B8B2B09F4FCCE04C00E94C404809326
:100760006C0080916C008D33C1F780916C000E9409
:100770007D0A0E94F7038091760090917700A09106
:100780007800B09179000E94EF1004C00E94C40468
:1007900080936C0080916C008830C1F710926C00DF
:1007A00010926D0010926E0010926F001092700007
:1007B00010927100109272001092730010927400E7
:1007C00010927500109276001092770010927800C7
:1007D0001092790017CDCF93DF93CDB7DEB780911C
:1007E0006C00809375000000DF91CF9108950F9306
:1007F0001F93CF93DF93CDB7DEB72C970FB6F89446
:10080000DEBF0FBECDBF80917500882F90E08F3284
:10081000910509F47DC0803391050CF0A0C08D32A4
:10082000910541F18E3291050CF099C08A32910503
:1008300009F441C08B9709F092C040916D0050912E
:100840006E0060916F0070917000809171009091C6
:100850007200A0917300B0917400840F951FA61FC1
:10086000B71F8093760090937700A0937800B093A1
:1008700079007EC040916D0050916E0060916F00D4
:10088000709170008091710090917200A09173003E
:10089000B09174008A019B01081B190B2A0B3B0BBA
:1008A000D901C8018093760090937700A0937800D7
:1008B000B09379005DC080916D0090916E00A09121
:1008C0006F00B091700020917100309172004091E2
:1008D00073005091740029833A834B835C839C019D
:1008E000AD0169817A818B819C810E945A136D834D
:1008F0007E838F8398878D819E81AF81B885809319
:10090000760090937700A0937800B093790030C080
:1009100000916D0010916E0020916F003091700079
:1009200009871A872B873C8700917100109172000C
:10093000209173003091740069857A858B859C8540
:10094000A90198010E946A13DA01C9018093760017
:1009500090937700A0937800B093790009C010922B
:1009600076001092770010927800109279000000C3
:1009700000002C960FB6F894DEBF0FBECDBFDF91FE
:10098000CF911F910F910895CF93DF9300D0CDB7F2
:10099000DEB7198247C08981282F30E080E190E0DE
:1009A000AC0102C0440F551F2A95E2F79A018AE371
:1009B00090E0FC0120838981282F30E080E190E0E5
:1009C00002C0880F991F2A95E2F7282F8BE390E049
:1009D0002095FC0120831A821FC089E390E0FC016E
:1009E0008081882F90E02A81222F30E002C09595E7
:1009F00087952A95E2F781709927892B51F48A818E
:100A0000982F990F990F8981890F8F5F0E941C057C
:100A10000EC08A818F5F8A838A818430F0F2898157
:100A20008F5F89838981843008F4B5CFB2CF0F906E
:100A30000F90DF91CF910895CF93DF930F92CDB7B1
:100A4000DEB789838981882F90E0092E000CAA0BDC
:100A5000BB0B0197A109B10980319105A105B10531
:100A600028F586569A4EFC010C94891387E31FC023
:100A700088E31DC089E31BC08FE219C084E317C05F
:100A800085E315C086E313C08AE211C081E30FC07D
:100A900082E30DC083E30BC08DE209C088E007C08C
:100AA00080E305C08DE303C08BE201C080E00F90BE
:100AB000DF91CF9108950F931F93CF93DF93CDB71D
:100AC000DEB7CD5CD1090FB6F894DEBF0FBECDBF47
:100AD0009E012B5A3F4FD9018C9382E390E0FC0199
:100AE00020812F7EDC012C9382E390E0FC012081A9
:100AF0002F7DDC012C939E01295B3F4F80E090E02D
:100B0000A0E8BFE3F90180839183A283B3838E01C0
:100B1000055B1F4FCE01895B9F4F20E030E04AE725
:100B200053E4DC016D917D918D919C910E94EB14B9
:100B3000E2966CAF7DAF8EAF9FAFE297E2962CADA1
:100B40003DAD4EAD5FADE297D8012D933D934D93F2
:100B50005C931397CE01855B9F4F20E030E040E827
:100B60005FE3FC0160817181828193810E94CB13DC
:100B700088234CF4CE01815B9F4F21E030E0DC0103
:100B80002D933C9392C0CE01855B9F4F20E03FEFB9
:100B90004FE757E4FC0160817181828193810E945B
:100BA000E61418160CF067C0CE01895B9F4F20E059
:100BB00030E040E251E4DC016D917D918D919C919A
:100BC0000E94EB14E6966CAF7DAF8EAF9FAFE697B9
:100BD000E6962CAD3DAD4EAD5FADE697AE962CAF33
:100BE0003DAF4EAF5FAFAE978E01015B1F4FAE962C
:100BF0006CAD7DAD8EAD9FADAE970E944214EA966E
:100C00006CAF7DAF8EAF9FAFEA97E896EEADFFADCC
:100C1000E897D801ED93FC9325C0CE018F5A9F4FE2
:100C200029E130E0DC012D933C93CE018F5A9F4F98
:100C3000FC01808191810197F1F79E012F5A3F4F6E
:100C4000D9018D939C930000CE01815B9F4F9E0143
:100C5000215B3F4FF9012081318121503109DC01B5
:100C60002D933C93CE01815B9F4FFC01808191814C
:100C7000892B99F635C08E01015B1F4FCE01855B34
:100C80009F4FDC016D917D918D919C910E9442144A
:100C9000EE966CAF7DAF8EAF9FAFEE97EC962EAD1C
:100CA0003FADEC97F80131832083CE018D5A9F4FE1
:100CB0009E01215B3F4FD9012D913C91FC01318375
:100CC0002083CE018D5A9F4FDC018D919C9101971D
:100CD000F1F79E012D5A3F4FF90191838083000067
:100CE00082E390E0DC012C912064FC01208380E011
:100CF00090E0A0E8BFE389AF9AAFABAFBCAF20E014
:100D000030E04AE753E469AD7AAD8BAD9CAD0E940B
:100D1000EB14C258DF4F688379838A839B83CE5755
:100D2000D040CE01CD96C258DF4F288139814A810B
:100D30005B81CE57D040DC012D933D934D935C9366
:100D4000139720E030E040E85FE3CE01CD96FC0150
:100D500060817181828193810E94CB1388234CF43E
:100D6000CE018F5B9F4F21E030E0DC012D933C935F
:100D700098C020E03FEF4FE757E4CE01CD96FC014D
:100D800060817181828193810E94E61418160CF0B3
:100D90006BC020E030E040E251E469AD7AAD8BAD4C
:100DA0009CAD0E94EB14CE57DF4F688379838A8312
:100DB0009B83C258D040CE57DF4F288139814A816A
:100DC0005B81C258D040AA962CAF3DAF4EAF5FAF0B
:100DD000AA978E010F5B1F4FAA966CAD7DAD8EADAD
:100DE0009FADAA970E944214CA57DF4F6883798348
:100DF0008A839B83C658D040CA57DF4FE881F98168
:100E0000C658D040D801ED93FC9325C0CE018D5B30
:100E10009F4F29E130E0DC012D933C93CE018D5BA7
:100E20009F4FFC01808191810197F1F79E012D5B1D
:100E30003F4FD9018D939C930000CE018F5B9F4F54
:100E40009E012F5B3F4FF9012081318121503109F3
:100E5000DC012D933C93CE018F5B9F4FFC01808181
:100E60009181892B99F638C08E010F5B1F4FCE01FF
:100E7000CD96DC016D917D918D919C910E944214E3
:100E8000C657DF4F688379838A839B83CA58D040D3
:100E9000C657DF4F28813981CA58D040F8013183C5
:100EA0002083CE018B5B9F4F9E012F5B3F4FD9016B
:100EB0002D913C91FC0131832083CE018B5B9F4FB0
:100EC000DC018D919C910197F1F79E012B5B3F4FC7
:100ED000F901918380830000CE018B5A9F4FDC0182
:100EE0008C9182958F70282F85E390E0FC018081A2
:100EF000807F282B85E390E0DC012C9382E390E057
:100F0000FC0120812F7BDC012C9380E090E0A0E8A5
:100F1000BFE38BA79CA7ADA7BEA720E030E04AE7C0
:100F200053E46BA57CA58DA59EA50E94EB14C2572A
:100F3000DF4F688379838A839B83CE58D040C25722
:100F4000DF4F288139814A815B81CE58D0402FA75D
:100F500038AB49AB5AAB20E030E040E85FE36FA527
:100F600078A989A99AA90E94CB1388232CF481E03F
:100F700090E09CAB8BAB71C020E03FEF4FE757E4B4
:100F80006FA578A989A99AA90E94E61418160CF0F1
:100F90004EC020E030E040E251E46BA57CA58DA579
:100FA0009EA50E94EB14CE56DF4F688379838A8317
:100FB0009B83C259D040CE56DF4F88819981AA8148
:100FC000BB81C259D040A6968CAF9DAFAEAFBFAF2C
:100FD000A697A6966CAD7DAD8EAD9FADA6970E94EF
:100FE0004214CA56DF4F688379838A839B83C6592C
:100FF000D040CA56DF4FA881B981C659D040BCAB9A
:10100000ABAB10C089E190E09EAB8DAB8DA99EA9E2
:101010000197F1F79EAB8DAB00008BA99CA90197BE
:101020009CAB8BAB8BA99CA9892B61F721C06FA5C9
:1010300078A989A99AA90E944214C656DF4F6883ED
:1010400079838A839B83CA59D040C656DF4FE88193
:10105000F981CA59D040FCABEBAB8BA99CA998AFE6
:101060008FAB8FA998AD0197F1F798AF8FAB0000C8
:1010700082E390E0DC012C912064FC01208380E07D
:1010800090E0A0E8BFE38D8F9E8FAF8FB8A320E0E4
:1010900030E04AE753E46D8D7E8D8F8D98A10E94DC
:1010A000EB14C256DF4F688379838A839B83CE59C2
:1010B000D040C256DF4F288139814A815B81CE59A9
:1010C000D04029A33AA34BA35CA320E030E040E842
:1010D0005FE369A17AA18BA19CA10E94CB13882315
:1010E0002CF481E090E09EA38DA371C020E03FEF3F
:1010F0004FE757E469A17AA18BA19CA10E94E61455
:1011000018160CF04EC020E030E040E251E46D8D46
:101110007E8D8F8D98A10E94EB14CE55DF4F688392
:1011200079838A839B83C25AD040CE55DF4F888112
:101130009981AA81BB81C25AD040A2968CAF9DAF43
:10114000AEAFBFAFA297A2966CAD7DAD8EAD9FAD99
:10115000A2970E944214CA55DF4F688379838A831D
:101160009B83C65AD040CA55DF4FA881B981C65A61
:10117000D040BEA3ADA310C089E190E098A78FA393
:101180008FA198A50197F1F798A78FA300008DA1D3
:101190009EA101979EA38DA38DA19EA1892B61F78E
:1011A00021C069A17AA18BA19CA10E944214C655BD
:1011B000DF4F688379838A839B83CA5AD040C655A0
:1011C000DF4FE881F981CA5AD040FEA3EDA38DA17B
:1011D0009EA19AA789A789A59AA50197F1F79AA731
:1011E00089A70000CE018B5A9F4FDC018C91282FDC
:1011F0002F7085E390E0FC018081807F282B85E3C0
:1012000090E0DC012C9380E090E0A0E8BFE38F87C2
:10121000988BA98BBA8B20E030E04AE753E46F85C6
:10122000788989899A890E94EB14C255DF4F6883B7
:1012300079838A839B83CE5AD040C255DF4F288161
:1012400039814A815B81CE5AD0402B8B3C8B4D8BB0
:101250005E8B20E030E040E85FE36B897C898D891C
:101260009E890E94CB1388232CF481E090E0988F14
:101270008F8B71C020E03FEF4FE757E46B897C898B
:101280008D899E890E94E61418160CF04EC020E04D
:1012900030E040E251E46F85788989899A890E941B
:1012A000EB14CE54DF4F688379838A839B83C25BC0
:1012B000D040CE54DF4F88819981AA81BB81C25B27
:1012C000D0406E968CAF9DAFAEAFBFAF6E976E96AF
:1012D0006CAD7DAD8EAD9FAD6E970E944214CA5429
:1012E000DF4F688379838A839B83C65BD040CA546F
:1012F000DF4FA881B981C65BD040B88FAF8B10C0DB
:1013000089E190E09A8F898F898D9A8D0197F1F705
:101310009A8F898F00008F89988D0197988F8F8B76
:101320008F89988D892B61F721C06B897C898D8984
:101330009E890E944214C654DF4F688379838A8352
:101340009B83CA5BD040C654DF4FE881F981CA5BFA
:10135000D040F88FEF8B8F89988D9C8F8B8F8B8DE2
:101360009C8D0197F1F79C8F8B8F000082E390E0BA
:10137000DC012C912F7BFC01208380E090E0A0E831
:10138000BFE389839A83AB83BC8320E030E04AE7E4
:1013900053E469817A818B819C810E94EB14C25451
:1013A000DF4F688379838A839B83CE5BD040C254AE
:1013B000DF4F288139814A815B81CE5BD0402D830C
:1013C0003E834F83588720E030E040E85FE36D8143
:1013D0007E818F8198850E94CB1388232CF481E035
:1013E00090E09A87898771C020E03FEF4FE757E48C
:1013F0006D817E818F8198850E94E61418160CF00D
:101400004EC020E030E040E251E469817A818B8176
:101410009C810E94EB14CE53DF4F688379838A83CB
:101420009B83C25CD040CE53DF4F88819981AA81D3
:10143000BB81C25CD0406A968CAF9DAFAEAFBFAFF0
:101440006A976A966CAD7DAD8EAD9FAD6A970E942E
:101450004214CA53DF4F688379838A839B83C65CB7
:10146000D040CA53DF4FA881B981C65CD040BA874B
:10147000A98710C089E190E09C878B878B859C852C
:101480000197F1F79C878B87000089859A850197E2
:101490009A87898789859A85892B61F721C06D8113
:1014A0007E818F8198850E944214C653DF4F6883E6
:1014B00079838A839B83CA5CD040C653DF4FE8811F
:1014C000F981CA5CD040FA87E98789859A859E8729
:1014D0008D878D859E850197F1F79E878D8700000A
:1014E0000000C353DF4F0FB6F894DEBF0FBECDBF71
:1014F000DF91CF911F910F9108950F931F93CF9379
:10150000DF93CDB7DEB7CD5CD1090FB6F894DEBF5F
:101510000FBECDBF9E012B5A3F4FD9018C9382E362
:1015200090E0FC0120812061DC012C9382E390E0BB
:10153000FC0120812F7DDC012C939E01295B3F4F14
:1015400080E090E0A0E8BFE3F90180839183A2836B
:10155000B3838E01055B1F4FCE01895B9F4F20E057
:1015600030E04AE753E4DC016D917D918D919C91CF
:101570000E94EB14E2966CAF7DAF8EAF9FAFE29707
:10158000E2962CAD3DAD4EAD5FADE297D8012D9307
:101590003D934D935C931397CE01855B9F4F20E065
:1015A00030E040E85FE3FC016081718182819381DA
:1015B0000E94CB1388234CF4CE01815B9F4F21E026
:1015C00030E0DC012D933C9392C0CE01855B9F4FB0
:1015D00020E03FEF4FE757E4FC0160817181828199
:1015E00093810E94E61418160CF067C0CE01895B47
:1015F0009F4F20E030E040E251E4DC016D917D91AD
:101600008D919C910E94EB14E6966CAF7DAF8EAFEE
:101610009FAFE697E6962CAD3DAD4EAD5FADE6973C
:10162000AE962CAF3DAF4EAF5FAFAE978E01015B74
:101630001F4FAE966CAD7DAD8EAD9FADAE970E9447
:101640004214EA966CAF7DAF8EAF9FAFEA97E896F3
:10165000EEADFFADE897D801ED93FC9325C0CE0128
:101660008F5A9F4F29E130E0DC012D933C93CE014E
:101670008F5A9F4FFC01808191810197F1F79E0164
:101680002F5A3F4FD9018D939C930000CE01815B6F
:101690009F4F9E01215B3F4FF901208131812150F5
:1016A0003109DC012D933C93CE01815B9F4FFC01FE
:1016B00080819181892B99F635C08E01015B1F4F86
:1016C000CE01855B9F4FDC016D917D918D919C9149
:1016D0000E944214EE966CAF7DAF8EAF9FAFEE9737
:1016E000EC962EAD3FADEC97F80131832083CE010F
:1016F0008D5A9F4F9E01215B3F4FD9012D913C9107
:10170000FC0131832083CE018D5A9F4FDC018D91E6
:101710009C910197F1F79E012D5A3F4FF90191835A
:101720008083000082E390E0DC012C912064FC01C6
:10173000208380E090E0A0E8BFE389AF9AAFABAF31
:10174000BCAF20E030E04AE753E469AD7AAD8BAD41
:101750009CAD0E94EB14C258DF4F688379838A8363
:101760009B83CE57D040CE01CD96C258DF4F288103
:1017700039814A815B81CE57D040DC012D933D9366
:101780004D935C93139720E030E040E85FE3CE0197
:10179000CD96FC0160817181828193810E94CB137F
:1017A00088234CF4CE018F5B9F4F21E030E0DC01B9
:1017B0002D933C9398C020E03FEF4FE757E4CE01D4
:1017C000CD96FC0160817181828193810E94E61433
:1017D00018160CF06BC020E030E040E251E469AD37
:1017E0007AAD8BAD9CAD0E94EB14CE57DF4F688372
:1017F00079838A839B83C258D040CE57DF4F28819C
:1018000039814A815B81C258D040AA962CAF3DAF46
:101810004EAF5FAFAA978E010F5B1F4FAA966CADBC
:101820007DAD8EAD9FADAA970E944214CA57DF4F7F
:10183000688379838A839B83C658D040CA57DF4F19
:10184000E881F981C658D040D801ED93FC9325C0BA
:10185000CE018D5B9F4F29E130E0DC012D933C935D
:10186000CE018D5B9F4FFC01808191810197F1F743
:101870009E012D5B3F4FD9018D939C930000CE01BB
:101880008F5B9F4F9E012F5B3F4FF901208131817C
:1018900021503109DC012D933C93CE018F5B9F4F8A
:1018A000FC0180819181892B99F638C08E010F5BF4
:1018B0001F4FCE01CD96DC016D917D918D919C9154
:1018C0000E944214C657DF4F688379838A839B83C3
:1018D000CA58D040C657DF4F28813981CA58D040F6
:1018E000F80131832083CE018B5B9F4F9E012F5BDC
:1018F0003F4FD9012D913C91FC0131832083CE01D2
:101900008B5B9F4FDC018D919C910197F1F79E01BC
:101910002B5B3F4FF901918380830000CE018B5AEE
:101920009F4FDC018C9182958F70282F85E390E08A
:10193000FC018081807F282B85E390E0DC012C93E3
:1019400082E390E0FC0120812F7BDC012C9380E07E
:1019500090E0A0E8BFE38BA79CA7ADA7BEA720E0BF
:1019600030E04AE753E46BA57CA58DA59EA50E94B7
:10197000EB14C257DF4F688379838A839B83CE58E9
:10198000D040C257DF4F288139814A815B81CE58D0
:10199000D0402FA738AB49AB5AAB20E030E040E84D
:1019A0005FE36FA578A989A99AA90E94CB13882320
:1019B0002CF481E090E09CAB8BAB71C020E03FEF5A
:1019C0004FE757E46FA578A989A99AA90E94E61460
:1019D00018160CF04EC020E030E040E251E46BA558
:1019E0007CA58DA59EA50E94EB14CE56DF4F688383
:1019F00079838A839B83C259D040CE56DF4F88813A
:101A00009981AA81BB81C259D040A6968CAF9DAF67
:101A1000AEAFBFAFA697A6966CAD7DAD8EAD9FADB8
:101A2000A6970E944214CA56DF4F688379838A833F
:101A30009B83C659D040CA56DF4FA881B981C65989
:101A4000D040BCABABAB10C089E190E09EAB8DAB9E
:101A50008DA99EA90197F1F79EAB8DAB00008BA9D4
:101A60009CA901979CAB8BAB8BA99CA9892B61F797
:101A700021C06FA578A989A99AA90E944214C656C7
:101A8000DF4F688379838A839B83CA59D040C656C7
:101A9000DF4FE881F981CA59D040FCABEBAB8BA991
:101AA0009CA998AF8FAB8FA998AD0197F1F798AF2C
:101AB0008FAB000082E390E0DC012C912064FC01FC
:101AC000208380E090E0A0E8BFE38D8F9E8FAF8FF2
:101AD000B8A320E030E04AE753E46D8D7E8D8F8D12
:101AE00098A10E94EB14C256DF4F688379838A83E2
:101AF0009B83CE59D040C256DF4F288139814A811D
:101B00005B81CE59D04029A33AA34BA35CA320E02C
:101B100030E040E85FE369A17AA18BA19CA10E941B
:101B2000CB1388232CF481E090E09EA38DA371C099
:101B300020E03FEF4FE757E469A17AA18BA19CA178
:101B40000E94E61418160CF04EC020E030E040E28F
:101B500051E46D8D7E8D8F8D98A10E94EB14CE5532
:101B6000DF4F688379838A839B83C25AD040CE55E6
:101B7000DF4F88819981AA81BB81C25AD040A29649
:101B80008CAF9DAFAEAFBFAFA297A2966CAD7DAD4F
:101B90008EAD9FADA2970E944214CA55DF4F688355
:101BA00079838A839B83C65AD040CA55DF4FA88168
:101BB000B981C65AD040BEA3ADA310C089E190E060
:101BC00098A78FA38FA198A50197F1F798A78FA346
:101BD00000008DA19EA101979EA38DA38DA19EA122
:101BE000892B61F721C069A17AA18BA19CA10E94D8
:101BF0004214C655DF4F688379838A839B83CA5A10
:101C0000D040C655DF4FE881F981CA5AD040FEA3C3
:101C1000EDA38DA19EA19AA789A789A59AA5019751
:101C2000F1F79AA789A70000CE018B5A9F4FDC01DC
:101C30008C91282F2F7085E390E0FC018081807FBC
:101C4000282B85E390E0DC012C9380E090E0A0E875
:101C5000BFE38F87988BA98BBA8B20E030E04AE7EF
:101C600053E46F85788989899A890E94EB14C2555B
:101C7000DF4F688379838A839B83CE5AD040C255D5
:101C8000DF4F288139814A815B81CE5AD0402B8B2E
:101C90003C8B4D8B5E8B20E030E040E85FE36B894E
:101CA0007C898D899E890E94CB1388232CF481E046
:101CB00090E0988F8F8B71C020E03FEF4FE757E4A3
:101CC0006B897C898D899E890E94E61418160CF018
:101CD0004EC020E030E040E251E46F857889898988
:101CE0009A890E94EB14CE54DF4F688379838A83EC
:101CF0009B83C25BD040CE54DF4F88819981AA81FB
:101D0000BB81C25BD0406E968CAF9DAFAEAFBFAF14
:101D10006E976E966CAD7DAD8EAD9FAD6E970E9449
:101D20004214CA54DF4F688379838A839B83C65BDE
:101D3000D040CA54DF4FA881B981C65BD040B88F6C
:101D4000AF8B10C089E190E09A8F898F898D9A8D31
:101D50000197F1F79A8F898F00008F89988D0197ED
:101D6000988F8F8B8F89988D892B61F721C06B8914
:101D70007C898D899E890E944214C654DF4F6883F6
:101D800079838A839B83CA5BD040C654DF4FE88146
:101D9000F981CA5BD040F88FEF8B8F89988D9C8F2B
:101DA0008B8F8B8D9C8D0197F1F79C8F8B8F000013
:101DB00082E390E0DC012C912F7BFC01208380E00A
:101DC00090E0A0E8BFE389839A83AB83BC8320E0E3
:101DD00030E04AE753E469817A818B819C810E94DB
:101DE000EB14C254DF4F688379838A839B83CE5B75
:101DF000D040C254DF4F288139814A815B81CE5B5C
:101E0000D0402D833E834F83588720E030E040E868
:101E10005FE36D817E818F8198850E94CB1388233B
:101E20002CF481E090E09A87898771C020E03FEF31
:101E30004FE757E46D817E818F8198850E94E6147B
:101E400018160CF04EC020E030E040E251E4698109
:101E50007A818B819C810E94EB14CE53DF4F688383
:101E600079838A839B83C25CD040CE53DF4F8881C5
:101E70009981AA81BB81C25CD0406A968CAF9DAF2C
:101E8000AEAFBFAF6A976A966CAD7DAD8EAD9FADBC
:101E90006A970E944214CA53DF4F688379838A830A
:101EA0009B83C65CD040CA53DF4FA881B981C65C12
:101EB000D040BA87A98710C089E190E09C878B87C2
:101EC0008B859C850197F1F79C878B87000089851E
:101ED0009A8501979A87898789859A85892B61F7E1
:101EE00021C06D817E818F8198850E944214C653E6
:101EF000DF4F688379838A839B83CA5CD040C65353
:101F0000DF4FE881F981CA5CD040FA87E98789858B
:101F10009A859E878D878D859E850197F1F79E878F
:101F20008D8700000000C353DF4F0FB6F894DEBF6B
:101F30000FBECDBFDF91CF911F910F910895CF9329
:101F4000DF9300D0CDB7DEB79A8389830BC0898138
:101F50009A81FC0180810E947D0A89819A81019683
:101F60009A83898389819A81FC018081882379F70A
:101F700000000F900F90DF91CF910895CF93DF93E2
:101F8000CDB7DEB7A2970FB6F894DEBF0FBECDBFB8
:101F900081E390E0DC012C912061FC01208381E34E
:101FA00090E0DC012C912062FC01208381E390E031
:101FB000DC012C912064FC01208382E00E945B05FF
:101FC00088E20E945B0584E390E0DC012C9184E3CD
:101FD00090E02F60FC0120838CE00E945B0586E08E
:101FE0000E945B0581E00E945B0580E090E0A0E03C
:101FF000B0E489839A83AB83BC8320E030E04AE776
:1020000053E469817A818B819C810E94EB146B8BF4
:102010007C8B8D8B9E8B8B899C89AD89BE898D83B2
:102020009E83AF83B88720E030E040E85FE36D81B6
:102030007E818F8198850E94CB1388232CF481E0C8
:1020400090E09A87898754C020E03FEF4FE757E43C
:102050006D817E818F8198850E94E6141816D4F5D3
:1020600020E030E040E251E469817A818B819C81FB
:102070000E94EB146F8B788F898F9A8F8F89988D40
:10208000A98DBA8D8F87988BA98BBA8B6F8578892C
:1020900089899A890E9442146B8F7C8F8D8F9E8FC5
:1020A000AB8DBC8DBA87A98710C089E190E09C8771
:1020B0008B878B859C850197F1F79C878B87000028
:1020C00089859A8501979A87898789859A85892B39
:1020D00061F719C06D817E818F8198850E944214BD
:1020E0006F8F78A389A39AA3EF8DF8A1FA87E98768
:1020F00089859A859E878D878D859E850197F1F7C5
:102100009E878D87000080E80E945B050000A296F4
:102110000FB6F894DEBF0FBECDBFDF91CF9108950B
:10212000CF93DF93CDB7DEB781E00E945B0580E8F7
:102130000E945B050000DF91CF910895CF93DF935C
:1021400000D000D0CDB7DEB789836A835C834B8330
:102150006A8189810E94B8108B819C810E949F0FA7
:1021600000000F900F900F900F90DF91CF91089586
:10217000CF93DF9300D00F92CDB7DEB78A836B8306
:102180008A81882F90E083309105D1F084309105C9
:10219000DCF48230910581F083309105ACF4009736
:1021A00019F0019729F010C08B81806889830CC0D9
:1021B0008B81806C898308C08B818061898304C096
:1021C0008B81806589830000898180680E945B051E
:1021D00000000F900F900F90DF91CF910895CF9353
:1021E000DF93CDB7DEB762970FB6F894DEBF0FBEB0
:1021F000CDBF9A8B898B89899A894AE050E09E01EC
:102200002F5F3F4FB9010E945815CE0101960E94E1
:102210009F0F000062960FB6F894DEBF0FBECDBFD1
:10222000DF91CF910895CF93DF9300D000D0CDB749
:10223000DEB78A837C836B838A818830D0F48A817D
:10224000880F880F880F80640E945B0519820EC07A
:102250008981882F90E02B813C81820F931FFC01A4
:1022600080810E94411189818F5F898389818830B3
:1022700078F300000F900F900F900F90DF91CF91A7
:102280000895CF93DF93CDB7DEB7CB56D1090FB604
:10229000F894DEBF0FBECDBF8FA785E390E02FA5DA
:1022A000DC012C9382E390E0FC0120812061DC01C1
:1022B0002C9382E390E0FC0120812F7DDC012C93A4
:1022C00082E390E0FC0120812064DC012C9380E01B
:1022D00090E0A0E8BFE38F87988BA98BBA8B2BEA9D
:1022E0003AEA4AEA5EE36F85788989899A890E9489
:1022F000EB1468AF79AF8AAF9BAF88AD99ADAAAD4B
:10230000BBAD8B8B9C8BAD8BBE8B20E030E040E86F
:102310005EE36F85788989899A890E94EB146CAF96
:102320007DAF8EAF9FAF8CAD9DADAEADBFAD8F8B92
:10233000988FA98FBA8F20E030E040E85FE36B8987
:102340007C898D899E890E94CB1388231CF481E0AF
:102350008B8FF8C020E03FEF4FE757E46F89788D0F
:10236000898D9A8D0E94E61418160CF0B1C020E0F9
:1023700030E04AE754E46F85788989899A890E9418
:10238000D01324966CAF7DAF8EAF9FAF2497249669
:102390008CAD9DADAEADBFAD24978C8F9D8FAE8FB4
:1023A000BF8F20E030E04AE753E46C8D7D8D8E8D49
:1023B0009F8D0E94EB1428966CAF7DAF8EAF9FAFC0
:1023C000289728968CAD9DADAEADBFAD289788A35C
:1023D00099A3AAA3BBA320E030E040E85FE368A193
:1023E00079A18AA19BA10E94CB1388232CF481E0C0
:1023F00090E09DA38CA361C020E03FEF4FE757E43E
:1024000068A179A18AA19BA10E94E61418160CF07C
:1024100042C020E030E040E251E46C8D7D8D8E8D35
:102420009F8D0E94EB142C966CAF7DAF8EAF9FAF4B
:102430002C972C968CAD9DADAEADBFAD2C978CABD3
:102440009DABAEABBFAB6CA97DA98EA99FA90E9425
:10245000421460966CAF7DAF8EAF9FAF60972E96A3
:10246000AEADBFAD2E97BDA3ACA310C089E190E087
:102470009FA38EA38EA19FA10197F1F79FA38EA387
:1024800000008CA19DA101979DA38CA38CA19DA16F
:10249000892B61F757C068A179A18AA19BA10E94ED
:1024A000421464966CAF7DAF8EAF9FAF6497629617
:1024B000EEADFFAD6297FDA3ECA38CA19DA199A702
:1024C00088A788A599A50197F1F799A788A73AC089
:1024D00020E030E04FE753E46B897C898D899E8949
:1024E0000E94E6141816F4F46F89788D898D9A8D00
:1024F0000E94421468966CAF7DAF8EAF9FAF689715
:1025000066968EAD9FAD66979BA78AA78AA59BA569
:102510009DA78CA78CA59DA50197F1F79DA78CA7DA
:10252000000017C06B897C898D899E890E944214A6
:102530006C966CAF7DAF8EAF9FAF6C9769969FAD79
:1025400069979B8F8B8D8EA78EA58A95F1F78EA7A5
:10255000000082E390E0DC012C912F7BFC012083C2
:1025600080E090E0A0E0B0E489839A83AB83BC83F1
:1025700020E030E04AE753E469817A818B819C81D5
:102580000E94EB14A0966CAF7DAF8EAF9FAFA0976B
:10259000A0968CAD9DADAEADBFADA0978D839E8353
:1025A000AF83B88720E030E040E85FE36D817E8153
:1025B0008F8198850E94CB1388232CF481E090E0D2
:1025C0009A87898761C020E03FEF4FE757E46D812C
:1025D0007E818F8198850E94E61418160CF042C007
:1025E00020E030E040E251E469817A818B819C8176
:1025F0000E94EB14A4966CAF7DAF8EAF9FAFA497F3
:10260000A4968CAD9DADAEADBFADA49788AB99AB94
:10261000AAABBBAB68A979A98AA99BA90E9442145D
:10262000A8966CAF7DAF8EAF9FAFA897A696AEADC4
:10263000BFADA697BA87A98710C089E190E09C87B3
:102640008B878B859C850197F1F79C878B87000092
:1026500089859A8501979A87898789859A85892BA3
:1026600061F71DC06D817E818F8198850E94421423
:10267000AC966CAF7DAF8EAF9FAFAC97AA96EEAD28
:10268000FFADAA97FA87E98789859A859E878D8706
:102690008D859E850197F1F79E878D87000000004C
:1026A000C559DF4F0FB6F894DEBF0FBECDBFDF9127
:1026B000CF910895DB018F939F930E948F13BF9159
:1026C000AF91A29F800D911DA39F900DB29F900D81
:1026D00011240895052E97FB1EF400940E94811387
:1026E00057FD07D00E949A1307FC03D04EF40C94B8
:1026F000811350954095309521953F4F4F4F5F4F37
:10270000089590958095709561957F4F8F4F9F4F5D
:102710000895EE0FFF1F0590F491E02D09940E949B
:10272000BC13A59F900DB49F900DA49F800D911D8B
:1027300011240895A1E21A2EAA1BBB1BFD010DC096
:10274000AA1FBB1FEE1FFF1FA217B307E407F50761
:1027500020F0A21BB30BE40BF50B661F771F881F3D
:10276000991F1A9469F760957095809590959B01D3
:10277000AC01BD01CF010895A29FB001B39FC0017C
:10278000A39F700D811D1124911DB29F700D811D9D
:102790001124911D08950E94711408F481E0089598
:1027A0000E94E4130C94AC140E94A51458F00E94EB
:1027B0009E1440F029F45F3F29F00C9495145111B8
:1027C0000C94E0140C949B140E94BD1468F399239C
:1027D000B1F3552391F3951B550BBB27AA2762171D
:1027E0007307840738F09F5F5F4F220F331F441F2A
:1027F000AA1FA9F335D00E2E3AF0E0E832D091505E
:102800005040E695001CCAF72BD0FE2F29D0660F4A
:10281000771F881FBB1F261737074807AB07B0E88D
:1028200009F0BB0B802DBF01FF2793585F4F3AF093
:102830009E3F510578F00C9495140C94E0145F3F82
:10284000E4F3983ED4F3869577956795B795F79519
:102850009F5FC9F7880F911D9695879597F9089501
:10286000E1E0660F771F881FBB1F6217730784079D
:10287000BA0720F0621B730B840BBA0BEE1F88F7AC
:10288000E09508950E94C51488F09F5798F0B92FDD
:102890009927B751B0F0E1F0660F771F881F991F95
:1028A0001AF0BA95C9F714C0B13091F00E94DF1444
:1028B000B1E008950C94DF14672F782F8827B85F54
:1028C00039F0B93FCCF3869577956795B395D9F7ED
:1028D0003EF490958095709561957F4F8F4F9F4FF7
:1028E0000895990F0008550FAA0BE0E8FEEF1616A1
:1028F0001706E807F907C0F012161306E407F507F4
:1029000098F0621B730B840B950B39F40A2661F067
:10291000232B242B252B21F408950A2609F4A1400A
:10292000A6958FEF811D811D089597F99F6780E817
:1029300070E060E008959FEF80EC089500240A9411
:102940001616170618060906089500240A9412168A
:102950001306140605060895092E0394000C11F4BD
:10296000882352F0BB0F40F4BF2B11F460FF04C06A
:102970006F5F7F4F8F4F9F4F089557FD9058440FC3
:10298000551F59F05F3F71F04795880F97FB991FCE
:1029900061F09F3F79F0879508951216130614068B
:1029A000551FF2CF4695F1DF08C016161706180618
:1029B000991FF1CF86957105610508940895E894F3
:1029C000BB2766277727CB0197F908950E947114DA
:1029D00008F48FEF08950E94FE140C94AC140E942A
:1029E0009E1438F00E94A51420F0952311F00C9449
:1029F00095140C949B1411240C94E0140E94BD14A3
:102A000070F3959FC1F3950F50E0551F629FF00141
:102A1000729FBB27F00DB11D639FAA27F00DB11D5A
:102A2000AA1F649F6627B00DA11D661F829F2227E3
:102A3000B00DA11D621F739FB00DA11D621F839F6A
:102A4000A00D611D221F749F3327A00D611D231F40
:102A5000849F600D211D822F762F6A2F11249F578E
:102A600050409AF0F1F088234AF0EE0FFF1FBB1F91
:102A7000661F771F881F91505040A9F79E3F510550
:102A800080F00C9495140C94E0145F3FE4F3983EAE
:102A9000D4F3869577956795B795F795E7959F5FFA
:102AA000C1F7FE2B880F911D9695879597F908958C
:102AB0004532510520F4423010F00C946315FB01AF
:102AC0001082CB010895BB274A3031F4992322F4B8
:102AD000BDE2909581959F4F0C946F15BB27FB012C
:102AE0005527AA27880F991FAA1FA41710F0A41B07
:102AF00083955051B9F7A05DAA3308F0A95DA19361
:102B0000009779F7B111B1931192CB010C9488150C
:102B1000DC01FC01672F71917723E1F7329704C044
:102B20007C916D9370836291AE17BF07C8F30895CF
:102B3000F894FFCF360538053A053C053E054005BB
:102B400042054405460548054A054C054E05500515
:042B500052055405D1
:0C2B540043616C63756C61746F7200006B
:00000001FF
